:020000040000FA
:020000000528D1
:040002000034003492
:020008000900ED
:06000A00FE302100990008
:1000100064001A1CFE3323008C0122008C018E0127
:10002000210000308C0000308E0048308400033006
:1000300085000030803FF030813FFF30823F21203B
:10004000FE338B1348308400033085003820303075
:100050008400033085006820383084000630850035
:100060003820203084000630850038208B170800A7
:10007000013F9820003F9820023F9820043F98209D
:10008000033F9820053F9820073F9820063F98207F
:10009000083F98200A3F9820093F98200B3F98205E
:1000A0000D3F98200C3F98200E3F9820103F98203D
:1000B0000F3F9820113F9820133F9820123F98201F
:1000C000143F9820163F9820153F9820173F9828F6
:1000D0000A3F9820093F98200B3F98200D3F982019
:1000E0000C3F98200E3F9820103F98200F3F9820FB
:1000F000113F9820013F9820003F9820023F982010
:10010000043F9820033F9820053F9820073F982000
:10011000063F9820083F9820133F9820123F9820D0
:10012000143F9820163F9820153F9820173F982895
:1001300022008E15000000000000891F8E110000B3
:100140000000000000008E110000000000008E156D
:10015000000000000000091F8E11000000000000D8
:1001600000008E110000000000008E15000000004D
:100170000000891E8E1100000000000000008E119A
:100180000000000000008E15000000000000091EA5
:100190008E1100000000000000008E110000000021
:1001A00000008E15000000000000891D8E11000067
:1001B0000000000000008E110000000000008E15FD
:1001C000000000000000091D8E110000000000006A
:1001D00000008E110000000000008E1500000000DD
:1001E0000000891C8E1100000000000000008E112C
:1001F0000000000000008E15000000000000091C37
:0E0200008E1100000000000000008E110800AA
:020000040001F9
:02000E00E40903
:02001000FF1FD0
:00000001FF
