:020000040000FA
:020000003028A6
:040002000034003492
:080008002000911C2F2891102B
:10001000043022008E06F708031DF703730AF3006D
:10002000403A031D1C32F3017208073E831CFA3E5E
:10003000F200603A031D1332F2017108073E831C7F
:10004000FA3EF100603A031D0A32F1017008073EE2
:10005000831CFA3EF000243A031D0132F00109002E
:10006000FC302100990064001A1CFE3323008C012F
:1000700022008C018E01210000308C0030308E0077
:10008000B63020009B009A017F3020009C002000A9
:10009000921021009114F001F101F201F3010B170C
:1000A0008B1778208C207D208C2082208C2087202C
:1000B0008C200830F70079217820700E95203221AD
:1000C00071217820700895203221F31E3921712189
:1000D0007820710E95203221F31E3921712178206C
:1000E0007108952032217121F708031DFD33E1339A
:1000F0002030840006308500080038308400063047
:100100008500080030308400033085000800483046
:100110008400033085000800322171217121712192
:10012000712171217121712171290F390B000E325A
:100130001B322832353242324F325C3269327632EB
:1001400083320800080008000800080040217121DF
:10015000472171214E217121552171215C2171218D
:1001600063217121322171293221712147217121AD
:100170004E217121322171213221712132217121CF
:1001800032217129402171214721712132217121B0
:10019000552171215C217121322171216A2171293E
:1001A00040217121472171214E2171215521712159
:1001B00032217121322171216A217129322171216B
:1001C000472171214E21712132217121322171216A
:1001D000632171216A21712940217121322171210C
:1001E0004E2171215521712132217121632171210B
:1001F0006A21712932217121322171214E2171210F
:10020000552171215C217121632171216A2171299C
:1002100040217121472171214E217121322171210B
:100220003221712132217121322171294021712124
:10023000472171214E217121552171215C217121AC
:10024000632171216A217129402171214721712186
:100250004E217121322171213221712163217121BD
:100260006A2171290030F4000030F5000030F600FA
:1002700008003330F4003330F5003330F600080066
:100280003330F4000030F5000030F6000800333061
:10029000F4001C30F5000030F60008003330F400A4
:1002A0003330F5000030F60008000030F400333041
:1002B000F5000030F60008000030F4000030F500D2
:1002C0003330F60008000F30F4000030F5001A302B
:1002D000F60008002F30F4001A30F5002F30F60039
:1002E00008007408803F7508813F7608823F03311B
:1002F00008008B13203084000630850090213830B0
:100300008400063085009021303084000330850061
:10031000C021483084000330850090218B170800ED
:10032000013FF021003FF021023FF021043FF02186
:10033000033FF021053FF021073FF021063FF02168
:10034000083FF0210A3FF021093FF0210B3FF02147
:100350000D3FF0210C3FF0210E3FF021103FF02126
:100360000F3FF021113FF021133FF021123FF02108
:10037000143FF021163FF021153FF021173FF029DF
:100380000A3FF021093FF0210B3FF0210D3FF02102
:100390000C3FF0210E3FF021103FF0210F3FF021E4
:1003A000113FF021013FF021003FF021023FF021F9
:1003B000043FF021033FF021053FF021073FF021EA
:1003C000063FF021083FF021133FF021123FF021BA
:1003D000143FF021163FF021153FF021173FF0297F
:1003E00022008E15000000000000891F8E11000001
:1003F0000000000000008E1100000000000000005E
:100400008E15000000000000091F8E110000000082
:10041000000000008E1100000000000000008E159A
:10042000000000000000891E8E1100000000000086
:1004300000008E1100000000000000008E1500007A
:1004400000000000091E8E110000000000000000E6
:100450008E1100000000000000008E15000000005A
:100460000000891D8E1100000000000000008E11A8
:1004700000000000000000008E15000000000000D9
:10048000091D8E1100000000000000008E11000008
:100490000000000000008E15000000000000891C14
:1004A0008E1100000000000000008E11000000000E
:1004B000000000008E15000000000000091C8E11D5
:0C04C00000000000000000008E11080089
:020000040001F9
:02000E00E4010B
:02001000CF1F00
:00000001FF
