:020000040000FA
:020000000C28CA
:040002000034003492
:08000800200091180B28911053
:08001000F008031DF0030900D4
:08001800FE3021009900640094
:100020001A1CFE3323008C0122008C018E0121005A
:1000300000308C0000308E00B63020009B009A010A
:100040007F3020009C0020009210210091140B179B
:100050008B1748308400033085000030803FF0303B
:10006000813FFF30823F0830F0003B206400F00801
:10007000031DFD33F8338B134830840003308500B3
:1000800052203030840003308500822038308400D4
:100090000630850052202030840006308500522032
:1000A0008B170800013FB220003FB220023FB22070
:1000B000043FB220033FB220053FB220073FB220E9
:1000C000063FB220083FB2200A3FB220093FB220CB
:1000D0000B3FB2200D3FB2200C3FB2200E3FB220AA
:1000E000103FB2200F3FB220113FB220133FB22089
:1000F000123FB220143FB220163FB220153FB2206B
:10010000173FB2280A3FB220093FB2200B3FB2206E
:100110000D3FB2200C3FB2200E3FB220103FB22064
:100120000F3FB220113FB220013FB220003FB2206A
:10013000023FB220043FB220033FB220053FB2206D
:10014000073FB220063FB220083FB220133FB22043
:10015000123FB220143FB220163FB220153FB2200A
:10016000173FB22822008E15000000000000891FF2
:100170008E1100000000000000008E110000000041
:1001800000008E15000000000000091F8E11000005
:100190000000000000008E110000000000008E151D
:1001A000000000000000891E8E1100000000000009
:1001B00000008E110000000000008E1500000000FD
:1001C0000000091E8E1100000000000000008E11CA
:1001D0000000000000008E15000000000000891DD6
:1001E0008E1100000000000000008E1100000000D1
:1001F00000008E15000000000000091D8E11000097
:100200000000000000008E110000000000008E15AC
:10021000000000000000891C8E110000000000009A
:1002200000008E110000000000008E15000000008C
:100230000000091C8E1100000000000000008E115B
:020240000800B4
:020000040001F9
:02000E00E40903
:02001000FF1FD0
:00000001FF
